:020000040800F2
:100000007806002029020008A9070008F106000868
:10001000A50700082F0300082508000800000000BD
:10002000000000000000000000000000AF07000812
:100030003303000800000000AD070008B107000806
:10004000430200084302000843020008430200087C
:10005000430200084302000843020008430200086C
:10006000430200084302000843020008430200085C
:10007000430200084302000843020008430200084C
:10008000430200084302000843020008430200083C
:10009000430200084302000843020008430200082C
:1000A000430200084302000843020008430200081C
:1000B000430200084302000843020008430200080C
:1000C00043020008430200084302000843020008FC
:1000D00043020008430200084302000843020008EC
:1000E00043020008430200084302000843020008DC
:1000F00043020008430200084302000843020008CC
:1001000043020008430200084302000843020008BB
:1001100043020008430200084302000843020008AB
:10012000430200084302000843020008430200089B
:10013000430200084302000843020008430200088B
:10014000430200084302000843020008430200087B
:10015000430200084302000843020008430200086B
:10016000430200084302000843020008430200085B
:100170004302000843020008430200080000000098
:10018000430200084302000800F002F800F03CF8C7
:100190000AA090E8000C82448344AAF10107DA45E2
:1001A00001D100F031F8AFF2090EBAE80F0013F0F8
:1001B000010F18BFFB1A43F0010318473C0700006A
:1001C0005C070000103A24BF78C878C1FAD85207FB
:1001D00024BF30C830C144BF04680C6070470000C1
:1001E0000023002400250026103A28BF78C1FBD840
:1001F000520728BF30C148BF0B6070471FB500F0E1
:1002000075FB1FBD10B510BD00F058F81146FFF783
:10021000F5FF00F025FB00F076F803B4FFF7F2FFDE
:1002200003BC00F07DF800000948804709480047FA
:10023000FEE7FEE7FEE7FEE7FEE7FEE7FEE7FEE796
:10024000FEE7FEE704480549054A064B70470000F3
:1002500011080008890100087800002078060020B5
:1002600078020020780200204FF0000200B513460B
:1002700094469646203922BFA0E80C50A0E80C50C6
:10028000B1F12001BFF4F7AF090728BFA0E80C5077
:1002900048BF0CC05DF804EB890028BF40F8042B70
:1002A00008BF704748BF20F8022B11F0804F18BFDD
:1002B00000F8012B7047704770477047754600F093
:1002C0002BF8AE4605006946534620F007008546E8
:1002D00018B020B5FFF7B6FFBDE820404FF000068C
:1002E0004FF000074FF000084FF0000B21F007011E
:1002F000AC46ACE8C009ACE8C009ACE8C009ACE861
:10030000C0098D46704710B50446AFF30080204603
:10031000BDE81040FFF781BF00487047140000207F
:1003200001491820ABBEFEE726000200704700BF5F
:10033000FEE77047F8B502460B4600250024002072
:100340000021D5E0012606FA01F51E6806EA05043B
:10035000AC4274D11E7906F00306012E04D01E793A
:1003600006F00306022E13D190684F000326BE400C
:10037000B0434F00DE68BE403043906050680126B5
:100380008E40B0431E79C6F300168E403043506055
:100390001E7906F00306032E09D0D0684F0003260D
:1003A000BE40B0434F009E68BE403043D0601E79CF
:1003B00006F00306022E13D1CF0802F1200656F8EC
:1003C00027004E07F70E0F26BE40B0434F07FF0E23
:1003D0001E69BE403043CF0802F1200646F82700D0
:1003E00010684F000326BE40B0431E7906F0030696
:1003F0004F00BE40304310605E6806F44036002E69
:1004000075D000BF002600963B4E366846F4804605
:10041000394F3E603E46366806F48046009600BF7F
:1004200000BF364E8F0856F827008E07370F0F266D
:10043000BE40B043324EB24202D1002624E056E024
:10044000304EB24201D101261EE02F4EB24201D100
:10045000022619E02D4EB24201D1032614E02C4EA3
:10046000B24201D104260FE02A4EB24201D1052644
:100470000AE0294EB24201D1062605E0274EB242DB
:1004800001D1072600E008268F073F0FBE4030430A
:100490001A4E8F0846F82700214E3068A0435E6848
:1004A00006F4803606B120431D4E3060361D30689C
:1004B000A0435E6806F4003606B12043184E361D90
:1004C0003060361D3068A0435E6806F4801606B1C1
:1004D0002043134E08363060361D3068A0435E68F6
:1004E00006F4001606B120430D4E0C363060491C50
:1004F0001029FFF427AFF8BD443802400838014006
:10050000000002400004024000080240000C0240CB
:10051000001002400014024000180240001C02407B
:10052000003C01400AB1816101E00B048361704726
:100530000348006803490978084401490860704786
:10054000040000200C00002010B50D48006840F4A5
:1005500000700B4908600846006840F4806008603D
:100560000846006840F480700860032000F092F8AC
:100570000F2000F007F800F02BF8002010BD00005D
:10058000003C024070B504460E4800784FF47A7182
:10059000B1FBF0F00C490968B1FBF0F5284600F01A
:1005A0008DF808B1012070BD102C07D20022214621
:1005B000501E00F031F80548046001E00120F2E728
:1005C0000020F0E70C0000201000002008000020B0
:1005D00008B500BF002000900E48006840F480403D
:1005E0000C4908600846006800F48040009000BF95
:1005F00000BF00BF00200090081F006840F080503E
:10060000091F08600846006800F08050009000BF95
:1006100000BF08BD443802402DE9F05F80460D461A
:100620001646002700F000F9074639462A463346A9
:1006300001F00700C0F1070ABAF1040F02D94FF028
:10064000040A01E0C0F1070AD14600F1040ABAF138
:10065000070F02D24FF0000A01E0A0F1030AD446CE
:100660004FF0010A0AFA09FAAAF1010A0AEA020A93
:100670000AFA0CFA4FF0010B0BFA0CFBABF1010B71
:100680000BEA030B4AEA0B042146404600F0D4F87B
:10069000BDE8F09F00BF00F00702064B19684FF657
:1006A000FF031940044B0B4343EA0221014B19603D
:1006B00000BF70470CED00E00000FA0570B504467D
:1006C0002546681EB0F1807F01D301200FE0681E2F
:1006D0004FF0E02148610F214FF0FF3000F0ACF8FF
:1006E00000204FF0E021886107200861002070BDE4
:1006F00000BFFEE700B587B0142102A8FFF7B4FDE4
:1007000000BF002001902448006840F0800022498A
:1007100008600846006800F08000019000BF00BF3C
:1007200000BF002001900846006840F0010008600A
:100730000846006800F00100019000BF00BF00BF44
:10074000002001900846006840F008000860084654
:10075000006800F00800019000BF00BF00224FF4C5
:1007600070410E48FFF7DEFE01200290002003904A
:10077000049002A90A48FFF7DDFD4FF47040029093
:100780000120039000200490059002A90348FFF780
:10079000D1FD07B000BD000030380240000C02401F
:1007A0000000024000BFFEE700BFFEE77047704751
:1007B00010B5FFF7BDFE124800684FF49661B0FB1C
:1007C000F1F201FB120010B901200E4908700C482B
:1007D00000684FF49671B0FBF1F201FB120010B902
:1007E000012009490870064800686421B0FBF1F255
:1007F00001FB120010B901200449087010BD00006F
:100800000400002000000020010000200200002061
:100810000348006840F47000014908607047000018
:1008200088ED00E000BFFEE702480068C0F3022048
:10083000704700000CED00E010B5002804DB0A074B
:10084000130E054A135406E00A07140E034A00F07B
:100850000F031B1FD45410BD00E400E018ED00E0AE
:10086000FFF772FEFFF746FF00BF012635E01B4889
:10087000006984B204F0010419480078B0B1174847
:10088000006985B205F001051CB115B9012E00D132
:1008900000260CB905B9002614B10DB106B9012620
:1008A0000CB905B1012600200D4908704EB90D485C
:1008B000007878B10C48006880F480400A490860EC
:1008C00008E00848007828B10748006880F48050A4
:1008D00005490860002003490870C8E7000002408D
:1008E0000200002001000020140C02404FF0407074
:1008F000E1EE100A7047000018090008000000200F
:1009000014000000C40100082C0900081400002095
:1009100064060000E0010008000000000000000084
:0C09200010000000010000000024F400A2
:040000050800018965
:00000001FF
